{
  "abi": [
    {
      "type": "constructor",
      "inputs": [
        {
          "name": "owner",
          "type": "address",
          "internalType": "address"
        }
      ],
      "stateMutability": "nonpayable"
    },
    {
      "type": "function",
      "name": "DOMAIN_SEPARATOR",
      "inputs": [],
      "outputs": [
        {
          "name": "",
          "type": "bytes32",
          "internalType": "bytes32"
        }
      ],
      "stateMutability": "view"
    },
    {
      "type": "function",
      "name": "approve",
      "inputs": [
        {
          "name": "to",
          "type": "address",
          "internalType": "address"
        },
        {
          "name": "tokenId",
          "type": "uint256",
          "internalType": "uint256"
        }
      ],
      "outputs": [],
      "stateMutability": "nonpayable"
    },
    {
      "type": "function",
      "name": "balanceOf",
      "inputs": [
        {
          "name": "owner",
          "type": "address",
          "internalType": "address"
        }
      ],
      "outputs": [
        {
          "name": "",
          "type": "uint256",
          "internalType": "uint256"
        }
      ],
      "stateMutability": "view"
    },
    {
      "type": "function",
      "name": "eip712Domain",
      "inputs": [],
      "outputs": [
        {
          "name": "fields",
          "type": "bytes1",
          "internalType": "bytes1"
        },
        {
          "name": "name",
          "type": "string",
          "internalType": "string"
        },
        {
          "name": "version",
          "type": "string",
          "internalType": "string"
        },
        {
          "name": "chainId",
          "type": "uint256",
          "internalType": "uint256"
        },
        {
          "name": "verifyingContract",
          "type": "address",
          "internalType": "address"
        },
        {
          "name": "salt",
          "type": "bytes32",
          "internalType": "bytes32"
        },
        {
          "name": "extensions",
          "type": "uint256[]",
          "internalType": "uint256[]"
        }
      ],
      "stateMutability": "view"
    },
    {
      "type": "function",
      "name": "getApproved",
      "inputs": [
        {
          "name": "tokenId",
          "type": "uint256",
          "internalType": "uint256"
        }
      ],
      "outputs": [
        {
          "name": "",
          "type": "address",
          "internalType": "address"
        }
      ],
      "stateMutability": "view"
    },
    {
      "type": "function",
      "name": "isApprovedForAll",
      "inputs": [
        {
          "name": "owner",
          "type": "address",
          "internalType": "address"
        },
        {
          "name": "operator",
          "type": "address",
          "internalType": "address"
        }
      ],
      "outputs": [
        {
          "name": "",
          "type": "bool",
          "internalType": "bool"
        }
      ],
      "stateMutability": "view"
    },
    {
      "type": "function",
      "name": "mintNFT",
      "inputs": [
        {
          "name": "to",
          "type": "address",
          "internalType": "address"
        },
        {
          "name": "uri",
          "type": "string",
          "internalType": "string"
        }
      ],
      "outputs": [
        {
          "name": "",
          "type": "uint256",
          "internalType": "uint256"
        }
      ],
      "stateMutability": "nonpayable"
    },
    {
      "type": "function",
      "name": "name",
      "inputs": [],
      "outputs": [
        {
          "name": "",
          "type": "string",
          "internalType": "string"
        }
      ],
      "stateMutability": "view"
    },
    {
      "type": "function",
      "name": "nonces",
      "inputs": [
        {
          "name": "owner",
          "type": "address",
          "internalType": "address"
        }
      ],
      "outputs": [
        {
          "name": "",
          "type": "uint256",
          "internalType": "uint256"
        }
      ],
      "stateMutability": "view"
    },
    {
      "type": "function",
      "name": "owner",
      "inputs": [],
      "outputs": [
        {
          "name": "",
          "type": "address",
          "internalType": "address"
        }
      ],
      "stateMutability": "view"
    },
    {
      "type": "function",
      "name": "ownerOf",
      "inputs": [
        {
          "name": "tokenId",
          "type": "uint256",
          "internalType": "uint256"
        }
      ],
      "outputs": [
        {
          "name": "",
          "type": "address",
          "internalType": "address"
        }
      ],
      "stateMutability": "view"
    },
    {
      "type": "function",
      "name": "permit",
      "inputs": [
        {
          "name": "owner",
          "type": "address",
          "internalType": "address"
        },
        {
          "name": "to",
          "type": "address",
          "internalType": "address"
        },
        {
          "name": "tokenId",
          "type": "uint256",
          "internalType": "uint256"
        },
        {
          "name": "deadline",
          "type": "uint256",
          "internalType": "uint256"
        },
        {
          "name": "v",
          "type": "uint8",
          "internalType": "uint8"
        },
        {
          "name": "r",
          "type": "bytes32",
          "internalType": "bytes32"
        },
        {
          "name": "s",
          "type": "bytes32",
          "internalType": "bytes32"
        }
      ],
      "outputs": [],
      "stateMutability": "nonpayable"
    },
    {
      "type": "function",
      "name": "renounceOwnership",
      "inputs": [],
      "outputs": [],
      "stateMutability": "nonpayable"
    },
    {
      "type": "function",
      "name": "safeTransferFrom",
      "inputs": [
        {
          "name": "from",
          "type": "address",
          "internalType": "address"
        },
        {
          "name": "to",
          "type": "address",
          "internalType": "address"
        },
        {
          "name": "tokenId",
          "type": "uint256",
          "internalType": "uint256"
        }
      ],
      "outputs": [],
      "stateMutability": "nonpayable"
    },
    {
      "type": "function",
      "name": "safeTransferFrom",
      "inputs": [
        {
          "name": "from",
          "type": "address",
          "internalType": "address"
        },
        {
          "name": "to",
          "type": "address",
          "internalType": "address"
        },
        {
          "name": "tokenId",
          "type": "uint256",
          "internalType": "uint256"
        },
        {
          "name": "data",
          "type": "bytes",
          "internalType": "bytes"
        }
      ],
      "outputs": [],
      "stateMutability": "nonpayable"
    },
    {
      "type": "function",
      "name": "setApprovalForAll",
      "inputs": [
        {
          "name": "operator",
          "type": "address",
          "internalType": "address"
        },
        {
          "name": "approved",
          "type": "bool",
          "internalType": "bool"
        }
      ],
      "outputs": [],
      "stateMutability": "nonpayable"
    },
    {
      "type": "function",
      "name": "supportsInterface",
      "inputs": [
        {
          "name": "interfaceId",
          "type": "bytes4",
          "internalType": "bytes4"
        }
      ],
      "outputs": [
        {
          "name": "",
          "type": "bool",
          "internalType": "bool"
        }
      ],
      "stateMutability": "view"
    },
    {
      "type": "function",
      "name": "symbol",
      "inputs": [],
      "outputs": [
        {
          "name": "",
          "type": "string",
          "internalType": "string"
        }
      ],
      "stateMutability": "view"
    },
    {
      "type": "function",
      "name": "tokenURI",
      "inputs": [
        {
          "name": "tokenId",
          "type": "uint256",
          "internalType": "uint256"
        }
      ],
      "outputs": [
        {
          "name": "",
          "type": "string",
          "internalType": "string"
        }
      ],
      "stateMutability": "view"
    },
    {
      "type": "function",
      "name": "transferFrom",
      "inputs": [
        {
          "name": "from",
          "type": "address",
          "internalType": "address"
        },
        {
          "name": "to",
          "type": "address",
          "internalType": "address"
        },
        {
          "name": "tokenId",
          "type": "uint256",
          "internalType": "uint256"
        }
      ],
      "outputs": [],
      "stateMutability": "nonpayable"
    },
    {
      "type": "function",
      "name": "transferOwnership",
      "inputs": [
        {
          "name": "newOwner",
          "type": "address",
          "internalType": "address"
        }
      ],
      "outputs": [],
      "stateMutability": "nonpayable"
    },
    {
      "type": "event",
      "name": "Approval",
      "inputs": [
        {
          "name": "owner",
          "type": "address",
          "indexed": true,
          "internalType": "address"
        },
        {
          "name": "approved",
          "type": "address",
          "indexed": true,
          "internalType": "address"
        },
        {
          "name": "tokenId",
          "type": "uint256",
          "indexed": true,
          "internalType": "uint256"
        }
      ],
      "anonymous": false
    },
    {
      "type": "event",
      "name": "ApprovalForAll",
      "inputs": [
        {
          "name": "owner",
          "type": "address",
          "indexed": true,
          "internalType": "address"
        },
        {
          "name": "operator",
          "type": "address",
          "indexed": true,
          "internalType": "address"
        },
        {
          "name": "approved",
          "type": "bool",
          "indexed": false,
          "internalType": "bool"
        }
      ],
      "anonymous": false
    },
    {
      "type": "event",
      "name": "BatchMetadataUpdate",
      "inputs": [
        {
          "name": "_fromTokenId",
          "type": "uint256",
          "indexed": false,
          "internalType": "uint256"
        },
        {
          "name": "_toTokenId",
          "type": "uint256",
          "indexed": false,
          "internalType": "uint256"
        }
      ],
      "anonymous": false
    },
    {
      "type": "event",
      "name": "EIP712DomainChanged",
      "inputs": [],
      "anonymous": false
    },
    {
      "type": "event",
      "name": "MetadataUpdate",
      "inputs": [
        {
          "name": "_tokenId",
          "type": "uint256",
          "indexed": false,
          "internalType": "uint256"
        }
      ],
      "anonymous": false
    },
    {
      "type": "event",
      "name": "NFTChange",
      "inputs": [
        {
          "name": "tokenId",
          "type": "uint256",
          "indexed": false,
          "internalType": "uint256"
        },
        {
          "name": "owner",
          "type": "address",
          "indexed": false,
          "internalType": "address"
        },
        {
          "name": "nftUrl",
          "type": "string",
          "indexed": false,
          "internalType": "string"
        }
      ],
      "anonymous": false
    },
    {
      "type": "event",
      "name": "OwnershipTransferred",
      "inputs": [
        {
          "name": "previousOwner",
          "type": "address",
          "indexed": true,
          "internalType": "address"
        },
        {
          "name": "newOwner",
          "type": "address",
          "indexed": true,
          "internalType": "address"
        }
      ],
      "anonymous": false
    },
    {
      "type": "event",
      "name": "Transfer",
      "inputs": [
        {
          "name": "from",
          "type": "address",
          "indexed": true,
          "internalType": "address"
        },
        {
          "name": "to",
          "type": "address",
          "indexed": true,
          "internalType": "address"
        },
        {
          "name": "tokenId",
          "type": "uint256",
          "indexed": true,
          "internalType": "uint256"
        }
      ],
      "anonymous": false
    },
    {
      "type": "error",
      "name": "ECDSAInvalidSignature",
      "inputs": []
    },
    {
      "type": "error",
      "name": "ECDSAInvalidSignatureLength",
      "inputs": [
        {
          "name": "length",
          "type": "uint256",
          "internalType": "uint256"
        }
      ]
    },
    {
      "type": "error",
      "name": "ECDSAInvalidSignatureS",
      "inputs": [
        {
          "name": "s",
          "type": "bytes32",
          "internalType": "bytes32"
        }
      ]
    },
    {
      "type": "error",
      "name": "ERC2612ExpiredSignature",
      "inputs": [
        {
          "name": "deadline",
          "type": "uint256",
          "internalType": "uint256"
        }
      ]
    },
    {
      "type": "error",
      "name": "ERC2612InvalidSigner",
      "inputs": [
        {
          "name": "signer",
          "type": "address",
          "internalType": "address"
        },
        {
          "name": "owner",
          "type": "address",
          "internalType": "address"
        }
      ]
    },
    {
      "type": "error",
      "name": "ERC721IncorrectOwner",
      "inputs": [
        {
          "name": "sender",
          "type": "address",
          "internalType": "address"
        },
        {
          "name": "tokenId",
          "type": "uint256",
          "internalType": "uint256"
        },
        {
          "name": "owner",
          "type": "address",
          "internalType": "address"
        }
      ]
    },
    {
      "type": "error",
      "name": "ERC721InsufficientApproval",
      "inputs": [
        {
          "name": "operator",
          "type": "address",
          "internalType": "address"
        },
        {
          "name": "tokenId",
          "type": "uint256",
          "internalType": "uint256"
        }
      ]
    },
    {
      "type": "error",
      "name": "ERC721InvalidApprover",
      "inputs": [
        {
          "name": "approver",
          "type": "address",
          "internalType": "address"
        }
      ]
    },
    {
      "type": "error",
      "name": "ERC721InvalidOperator",
      "inputs": [
        {
          "name": "operator",
          "type": "address",
          "internalType": "address"
        }
      ]
    },
    {
      "type": "error",
      "name": "ERC721InvalidOwner",
      "inputs": [
        {
          "name": "owner",
          "type": "address",
          "internalType": "address"
        }
      ]
    },
    {
      "type": "error",
      "name": "ERC721InvalidReceiver",
      "inputs": [
        {
          "name": "receiver",
          "type": "address",
          "internalType": "address"
        }
      ]
    },
    {
      "type": "error",
      "name": "ERC721InvalidSender",
      "inputs": [
        {
          "name": "sender",
          "type": "address",
          "internalType": "address"
        }
      ]
    },
    {
      "type": "error",
      "name": "ERC721NonexistentToken",
      "inputs": [
        {
          "name": "tokenId",
          "type": "uint256",
          "internalType": "uint256"
        }
      ]
    },
    {
      "type": "error",
      "name": "InvalidAccountNonce",
      "inputs": [
        {
          "name": "account",
          "type": "address",
          "internalType": "address"
        },
        {
          "name": "currentNonce",
          "type": "uint256",
          "internalType": "uint256"
        }
      ]
    },
    {
      "type": "error",
      "name": "InvalidShortString",
      "inputs": []
    },
    {
      "type": "error",
      "name": "OwnableInvalidOwner",
      "inputs": [
        {
          "name": "owner",
          "type": "address",
          "internalType": "address"
        }
      ]
    },
    {
      "type": "error",
      "name": "OwnableUnauthorizedAccount",
      "inputs": [
        {
          "name": "account",
          "type": "address",
          "internalType": "address"
        }
      ]
    },
    {
      "type": "error",
      "name": "StringTooLong",
      "inputs": [
        {
          "name": "str",
          "type": "string",
          "internalType": "string"
        }
      ]
    }
  ],
  "bytecode": {
    "object": "0x6101606040525f600b55348015610014575f80fd5b50604051613d5f380380613d5f83398181016040528101906100369190610496565b806040518060400160405280600681526020017f4c464d4e465400000000000000000000000000000000000000000000000000008152506040518060400160405280600181526020017f31000000000000000000000000000000000000000000000000000000000000008152506040518060400160405280600681526020017f4c464d4e465400000000000000000000000000000000000000000000000000008152506040518060400160405280600381526020017f4c46540000000000000000000000000000000000000000000000000000000000815250815f908161011d91906106fb565b50806001908161012d91906106fb565b50505061014460078361026060201b90919060201c565b610120818152505061016060088261026060201b90919060201c565b6101408181525050818051906020012060e08181525050808051906020012061010081815250504660a0818152505061019d6102ad60201b60201c565b608081815250503073ffffffffffffffffffffffffffffffffffffffff1660c08173ffffffffffffffffffffffffffffffffffffffff168152505050505f73ffffffffffffffffffffffffffffffffffffffff168173ffffffffffffffffffffffffffffffffffffffff160361024a575f6040517f1e4fbdf700000000000000000000000000000000000000000000000000000000815260040161024191906107d9565b60405180910390fd5b6102598161030760201b60201c565b5050610983565b5f6020835110156102815761027a836103ca60201b60201c565b90506102a7565b826102918361042f60201b60201c565b5f01908161029f91906106fb565b5060ff5f1b90505b92915050565b5f7f8b73c3c69bb8fe3d512ecc4cf759cc79239f7b179b0ffacaa9a75d522b39400f60e0516101005146306040516020016102ec959493929190610819565b60405160208183030381529060405280519060200120905090565b5f600a5f9054906101000a900473ffffffffffffffffffffffffffffffffffffffff16905081600a5f6101000a81548173ffffffffffffffffffffffffffffffffffffffff021916908373ffffffffffffffffffffffffffffffffffffffff1602179055508173ffffffffffffffffffffffffffffffffffffffff168173ffffffffffffffffffffffffffffffffffffffff167f8be0079c531659141344cd1fd0a4f28419497f9722a3daafe3b4186f6b6457e060405160405180910390a35050565b5f80829050601f8151111561041657826040517f305a27a900000000000000000000000000000000000000000000000000000000815260040161040d91906108d0565b60405180910390fd5b8051816104229061091d565b5f1c175f1b915050919050565b5f819050919050565b5f80fd5b5f73ffffffffffffffffffffffffffffffffffffffff82169050919050565b5f6104658261043c565b9050919050565b6104758161045b565b811461047f575f80fd5b50565b5f815190506104908161046c565b92915050565b5f602082840312156104ab576104aa610438565b5b5f6104b884828501610482565b91505092915050565b5f81519050919050565b7f4e487b71000000000000000000000000000000000000000000000000000000005f52604160045260245ffd5b7f4e487b71000000000000000000000000000000000000000000000000000000005f52602260045260245ffd5b5f600282049050600182168061053c57607f821691505b60208210810361054f5761054e6104f8565b5b50919050565b5f819050815f5260205f209050919050565b5f6020601f8301049050919050565b5f82821b905092915050565b5f600883026105b17fffffffffffffffffffffffffffffffffffffffffffffffffffffffffffffffff82610576565b6105bb8683610576565b95508019841693508086168417925050509392505050565b5f819050919050565b5f819050919050565b5f6105ff6105fa6105f5846105d3565b6105dc565b6105d3565b9050919050565b5f819050919050565b610618836105e5565b61062c61062482610606565b848454610582565b825550505050565b5f90565b610640610634565b61064b81848461060f565b505050565b5b8181101561066e576106635f82610638565b600181019050610651565b5050565b601f8211156106b35761068481610555565b61068d84610567565b8101602085101561069c578190505b6106b06106a885610567565b830182610650565b50505b505050565b5f82821c905092915050565b5f6106d35f19846008026106b8565b1980831691505092915050565b5f6106eb83836106c4565b9150826002028217905092915050565b610704826104c1565b67ffffffffffffffff81111561071d5761071c6104cb565b5b6107278254610525565b610732828285610672565b5f60209050601f831160018114610763575f8415610751578287015190505b61075b85826106e0565b8655506107c2565b601f19841661077186610555565b5f5b8281101561079857848901518255600182019150602085019450602081019050610773565b868310156107b557848901516107b1601f8916826106c4565b8355505b6001600288020188555050505b505050505050565b6107d38161045b565b82525050565b5f6020820190506107ec5f8301846107ca565b92915050565b5f819050919050565b610804816107f2565b82525050565b610813816105d3565b82525050565b5f60a08201905061082c5f8301886107fb565b61083960208301876107fb565b61084660408301866107fb565b610853606083018561080a565b61086060808301846107ca565b9695505050505050565b5f82825260208201905092915050565b8281835e5f83830152505050565b5f601f19601f8301169050919050565b5f6108a2826104c1565b6108ac818561086a565b93506108bc81856020860161087a565b6108c581610888565b840191505092915050565b5f6020820190508181035f8301526108e88184610898565b905092915050565b5f81519050919050565b5f819050602082019050919050565b5f61091482516107f2565b80915050919050565b5f610927826108f0565b82610931846108fa565b905061093c81610909565b9250602082101561097c576109777fffffffffffffffffffffffffffffffffffffffffffffffffffffffffffffffff83602003600802610576565b831692505b5050919050565b60805160a05160c05160e05161010051610120516101405161338b6109d45f395f610f5a01525f610f1f01525f6119e601525f6119c501525f610d1901525f610d6f01525f610d98015261338b5ff3fe608060405234801561000f575f80fd5b5060043610610135575f3560e01c80637ecebe00116100b6578063b88d4fde1161007a578063b88d4fde1461033f578063c87b56dd1461035b578063d505accf1461038b578063e985e9c5146103a7578063eacabe14146103d7578063f2fde38b1461040757610135565b80637ecebe001461029357806384b0196e146102c35780638da5cb5b146102e757806395d89b4114610305578063a22cb4651461032357610135565b80633644e515116100fd5780633644e515146101ef57806342842e0e1461020d5780636352211e1461022957806370a0823114610259578063715018a61461028957610135565b806301ffc9a71461013957806306fdde0314610169578063081812fc14610187578063095ea7b3146101b757806323b872dd146101d3575b5f80fd5b610153600480360381019061014e919061242b565b610423565b6040516101609190612470565b60405180910390f35b610171610434565b60405161017e91906124f9565b60405180910390f35b6101a1600480360381019061019c919061254c565b6104c3565b6040516101ae91906125b6565b60405180910390f35b6101d160048036038101906101cc91906125f9565b6104de565b005b6101ed60048036038101906101e89190612637565b6104f4565b005b6101f76105f3565b604051610204919061269f565b60405180910390f35b61022760048036038101906102229190612637565b610601565b005b610243600480360381019061023e919061254c565b610620565b60405161025091906125b6565b60405180910390f35b610273600480360381019061026e91906126b8565b610631565b60405161028091906126f2565b60405180910390f35b6102916106e7565b005b6102ad60048036038101906102a891906126b8565b6106fa565b6040516102ba91906126f2565b60405180910390f35b6102cb610740565b6040516102de97969594939291906127fc565b60405180910390f35b6102ef6107e5565b6040516102fc91906125b6565b60405180910390f35b61030d61080d565b60405161031a91906124f9565b60405180910390f35b61033d600480360381019061033891906128a8565b61089d565b005b61035960048036038101906103549190612a12565b6108b3565b005b6103756004803603810190610370919061254c565b6108d8565b60405161038291906124f9565b60405180910390f35b6103a560048036038101906103a09190612af2565b6108ea565b005b6103c160048036038101906103bc9190612b8f565b610a2f565b6040516103ce9190612470565b60405180910390f35b6103f160048036038101906103ec9190612c6b565b610abd565b6040516103fe91906126f2565b60405180910390f35b610421600480360381019061041c91906126b8565b610afd565b005b5f61042d82610b81565b9050919050565b60605f805461044290612cf2565b80601f016020809104026020016040519081016040528092919081815260200182805461046e90612cf2565b80156104b95780601f10610490576101008083540402835291602001916104b9565b820191905f5260205f20905b81548152906001019060200180831161049c57829003601f168201915b5050505050905090565b5f6104cd82610be1565b506104d782610c67565b9050919050565b6104f082826104eb610ca0565b610ca7565b5050565b5f73ffffffffffffffffffffffffffffffffffffffff168273ffffffffffffffffffffffffffffffffffffffff1603610564575f6040517f64a0ae9200000000000000000000000000000000000000000000000000000000815260040161055b91906125b6565b60405180910390fd5b5f6105778383610572610ca0565b610cb9565b90508373ffffffffffffffffffffffffffffffffffffffff168173ffffffffffffffffffffffffffffffffffffffff16146105ed578382826040517f64283d7b0000000000000000000000000000000000000000000000000000000081526004016105e493929190612d22565b60405180910390fd5b50505050565b5f6105fc610d16565b905090565b61061b83838360405180602001604052805f8152506108b3565b505050565b5f61062a82610be1565b9050919050565b5f8073ffffffffffffffffffffffffffffffffffffffff168273ffffffffffffffffffffffffffffffffffffffff16036106a2575f6040517f89c62b6400000000000000000000000000000000000000000000000000000000815260040161069991906125b6565b60405180910390fd5b60035f8373ffffffffffffffffffffffffffffffffffffffff1673ffffffffffffffffffffffffffffffffffffffff1681526020019081526020015f20549050919050565b6106ef610dcc565b6106f85f610e53565b565b5f60095f8373ffffffffffffffffffffffffffffffffffffffff1673ffffffffffffffffffffffffffffffffffffffff1681526020019081526020015f20549050919050565b5f6060805f805f6060610751610f16565b610759610f51565b46305f801b5f67ffffffffffffffff811115610778576107776128ee565b5b6040519080825280602002602001820160405280156107a65781602001602082028036833780820191505090505b507f0f00000000000000000000000000000000000000000000000000000000000000959493929190965096509650965096509650965090919293949596565b5f600a5f9054906101000a900473ffffffffffffffffffffffffffffffffffffffff16905090565b60606001805461081c90612cf2565b80601f016020809104026020016040519081016040528092919081815260200182805461084890612cf2565b80156108935780601f1061086a57610100808354040283529160200191610893565b820191905f5260205f20905b81548152906001019060200180831161087657829003601f168201915b5050505050905090565b6108af6108a8610ca0565b8383610f8c565b5050565b6108be8484846104f4565b6108d26108c9610ca0565b858585856110f5565b50505050565b60606108e3826112a1565b9050919050565b8342111561092f57836040517f6279130200000000000000000000000000000000000000000000000000000000815260040161092691906126f2565b60405180910390fd5b5f7f4b5192d873bead295bdba6a4b7b89db2a2bd382baf3e8c2ef996990d92b3e94f88888861095d8c6113ac565b8960405160200161097396959493929190612d57565b6040516020818303038152906040528051906020012090505f610995826113ff565b90505f6109a482878787611418565b90508973ffffffffffffffffffffffffffffffffffffffff168173ffffffffffffffffffffffffffffffffffffffff1614610a1857808a6040517f4b800e46000000000000000000000000000000000000000000000000000000008152600401610a0f929190612db6565b60405180910390fd5b610a23898983610ca7565b50505050505050505050565b5f60055f8473ffffffffffffffffffffffffffffffffffffffff1673ffffffffffffffffffffffffffffffffffffffff1681526020019081526020015f205f8373ffffffffffffffffffffffffffffffffffffffff1673ffffffffffffffffffffffffffffffffffffffff1681526020019081526020015f205f9054906101000a900460ff16905092915050565b5f610ac6610dcc565b5f600b5f815480929190610ad990612e0a565b919050559050610ae98184611446565b610af384826114a0565b8091505092915050565b610b05610dcc565b5f73ffffffffffffffffffffffffffffffffffffffff168173ffffffffffffffffffffffffffffffffffffffff1603610b75575f6040517f1e4fbdf7000000000000000000000000000000000000000000000000000000008152600401610b6c91906125b6565b60405180910390fd5b610b7e81610e53565b50565b5f634906490660e01b7bffffffffffffffffffffffffffffffffffffffffffffffffffffffff1916827bffffffffffffffffffffffffffffffffffffffffffffffffffffffff19161480610bda5750610bd9826114bd565b5b9050919050565b5f80610bec8361159e565b90505f73ffffffffffffffffffffffffffffffffffffffff168173ffffffffffffffffffffffffffffffffffffffff1603610c5e57826040517f7e273289000000000000000000000000000000000000000000000000000000008152600401610c5591906126f2565b60405180910390fd5b80915050919050565b5f60045f8381526020019081526020015f205f9054906101000a900473ffffffffffffffffffffffffffffffffffffffff169050919050565b5f33905090565b610cb483838360016115d7565b505050565b5f80610cc6858585611796565b90507f9e29e7cb688943647810278868d248b5b282d863312b2bad95932434d9f687438486610cf4876108d8565b604051610d0393929190612e51565b60405180910390a1809150509392505050565b5f7f000000000000000000000000000000000000000000000000000000000000000073ffffffffffffffffffffffffffffffffffffffff163073ffffffffffffffffffffffffffffffffffffffff16148015610d9157507f000000000000000000000000000000000000000000000000000000000000000046145b15610dbe577f00000000000000000000000000000000000000000000000000000000000000009050610dc9565b610dc66119a1565b90505b90565b610dd4610ca0565b73ffffffffffffffffffffffffffffffffffffffff16610df26107e5565b73ffffffffffffffffffffffffffffffffffffffff1614610e5157610e15610ca0565b6040517f118cdaa7000000000000000000000000000000000000000000000000000000008152600401610e4891906125b6565b60405180910390fd5b565b5f600a5f9054906101000a900473ffffffffffffffffffffffffffffffffffffffff16905081600a5f6101000a81548173ffffffffffffffffffffffffffffffffffffffff021916908373ffffffffffffffffffffffffffffffffffffffff1602179055508173ffffffffffffffffffffffffffffffffffffffff168173ffffffffffffffffffffffffffffffffffffffff167f8be0079c531659141344cd1fd0a4f28419497f9722a3daafe3b4186f6b6457e060405160405180910390a35050565b6060610f4c60077f0000000000000000000000000000000000000000000000000000000000000000611a3690919063ffffffff16565b905090565b6060610f8760087f0000000000000000000000000000000000000000000000000000000000000000611a3690919063ffffffff16565b905090565b5f73ffffffffffffffffffffffffffffffffffffffff168273ffffffffffffffffffffffffffffffffffffffff1603610ffc57816040517f5b08ba18000000000000000000000000000000000000000000000000000000008152600401610ff391906125b6565b60405180910390fd5b8060055f8573ffffffffffffffffffffffffffffffffffffffff1673ffffffffffffffffffffffffffffffffffffffff1681526020019081526020015f205f8473ffffffffffffffffffffffffffffffffffffffff1673ffffffffffffffffffffffffffffffffffffffff1681526020019081526020015f205f6101000a81548160ff0219169083151502179055508173ffffffffffffffffffffffffffffffffffffffff168373ffffffffffffffffffffffffffffffffffffffff167f17307eab39ab6107e8899845ad3d59bd9653f200f220920489ca2b5937696c31836040516110e89190612470565b60405180910390a3505050565b5f8373ffffffffffffffffffffffffffffffffffffffff163b111561129a578273ffffffffffffffffffffffffffffffffffffffff1663150b7a02868685856040518563ffffffff1660e01b81526004016111539493929190612edf565b6020604051808303815f875af192505050801561118e57506040513d601f19601f8201168201806040525081019061118b9190612f3d565b60015b61120f573d805f81146111bc576040519150601f19603f3d011682016040523d82523d5f602084013e6111c1565b606091505b505f81510361120757836040517f64a0ae920000000000000000000000000000000000000000000000000000000081526004016111fe91906125b6565b60405180910390fd5b805160208201fd5b63150b7a0260e01b7bffffffffffffffffffffffffffffffffffffffffffffffffffffffff1916817bffffffffffffffffffffffffffffffffffffffffffffffffffffffff19161461129857836040517f64a0ae9200000000000000000000000000000000000000000000000000000000815260040161128f91906125b6565b60405180910390fd5b505b5050505050565b60606112ac82610be1565b505f60065f8481526020019081526020015f2080546112ca90612cf2565b80601f01602080910402602001604051908101604052809291908181526020018280546112f690612cf2565b80156113415780601f1061131857610100808354040283529160200191611341565b820191905f5260205f20905b81548152906001019060200180831161132457829003601f168201915b505050505090505f611351611ae3565b90505f8151036113655781925050506113a7565b5f82511115611399578082604051602001611381929190612fa2565b604051602081830303815290604052925050506113a7565b6113a284611af9565b925050505b919050565b5f60095f8373ffffffffffffffffffffffffffffffffffffffff1673ffffffffffffffffffffffffffffffffffffffff1681526020019081526020015f205f815480929190600101919050559050919050565b5f61141161140b610d16565b83611b5f565b9050919050565b5f805f8061142888888888611b9f565b9250925092506114388282611c86565b829350505050949350505050565b8060065f8481526020019081526020015f2090816114649190613162565b507ff8e1a15aba9398e019f0b49df1a4fde98ee17ae345cb5f6b5e2c27f5033e8ce78260405161149491906126f2565b60405180910390a15050565b6114b9828260405180602001604052805f815250611de8565b5050565b5f7f80ac58cd000000000000000000000000000000000000000000000000000000007bffffffffffffffffffffffffffffffffffffffffffffffffffffffff1916827bffffffffffffffffffffffffffffffffffffffffffffffffffffffff1916148061158757507f5b5e139f000000000000000000000000000000000000000000000000000000007bffffffffffffffffffffffffffffffffffffffffffffffffffffffff1916827bffffffffffffffffffffffffffffffffffffffffffffffffffffffff1916145b80611597575061159682611e0b565b5b9050919050565b5f60025f8381526020019081526020015f205f9054906101000a900473ffffffffffffffffffffffffffffffffffffffff169050919050565b808061160f57505f73ffffffffffffffffffffffffffffffffffffffff168273ffffffffffffffffffffffffffffffffffffffff1614155b15611741575f61161e84610be1565b90505f73ffffffffffffffffffffffffffffffffffffffff168373ffffffffffffffffffffffffffffffffffffffff161415801561168857508273ffffffffffffffffffffffffffffffffffffffff168173ffffffffffffffffffffffffffffffffffffffff1614155b801561169b57506116998184610a2f565b155b156116dd57826040517fa9fbf51f0000000000000000000000000000000000000000000000000000000081526004016116d491906125b6565b60405180910390fd5b811561173f57838573ffffffffffffffffffffffffffffffffffffffff168273ffffffffffffffffffffffffffffffffffffffff167f8c5be1e5ebec7d5bd14f71427d1e84f3dd0314c0f7b2291e5b200ac8c7c3b92560405160405180910390a45b505b8360045f8581526020019081526020015f205f6101000a81548173ffffffffffffffffffffffffffffffffffffffff021916908373ffffffffffffffffffffffffffffffffffffffff16021790555050505050565b5f806117a18461159e565b90505f73ffffffffffffffffffffffffffffffffffffffff168373ffffffffffffffffffffffffffffffffffffffff16146117e2576117e1818486611e74565b5b5f73ffffffffffffffffffffffffffffffffffffffff168173ffffffffffffffffffffffffffffffffffffffff161461186d576118215f855f806115d7565b600160035f8373ffffffffffffffffffffffffffffffffffffffff1673ffffffffffffffffffffffffffffffffffffffff1681526020019081526020015f205f82825403925050819055505b5f73ffffffffffffffffffffffffffffffffffffffff168573ffffffffffffffffffffffffffffffffffffffff16146118ec57600160035f8773ffffffffffffffffffffffffffffffffffffffff1673ffffffffffffffffffffffffffffffffffffffff1681526020019081526020015f205f82825401925050819055505b8460025f8681526020019081526020015f205f6101000a81548173ffffffffffffffffffffffffffffffffffffffff021916908373ffffffffffffffffffffffffffffffffffffffff160217905550838573ffffffffffffffffffffffffffffffffffffffff168273ffffffffffffffffffffffffffffffffffffffff167fddf252ad1be2c89b69c2b068fc378daa952ba7f163c4a11628f55a4df523b3ef60405160405180910390a4809150509392505050565b5f7f8b73c3c69bb8fe3d512ecc4cf759cc79239f7b179b0ffacaa9a75d522b39400f7f00000000000000000000000000000000000000000000000000000000000000007f00000000000000000000000000000000000000000000000000000000000000004630604051602001611a1b959493929190613231565b60405160208183030381529060405280519060200120905090565b606060ff5f1b8314611a5257611a4b83611f37565b9050611add565b818054611a5e90612cf2565b80601f0160208091040260200160405190810160405280929190818152602001828054611a8a90612cf2565b8015611ad55780601f10611aac57610100808354040283529160200191611ad5565b820191905f5260205f20905b815481529060010190602001808311611ab857829003601f168201915b505050505090505b92915050565b606060405180602001604052805f815250905090565b6060611b0482610be1565b505f611b0e611ae3565b90505f815111611b2c5760405180602001604052805f815250611b57565b80611b3684611fa9565b604051602001611b47929190612fa2565b6040516020818303038152906040525b915050919050565b5f6040517f190100000000000000000000000000000000000000000000000000000000000081528360028201528260228201526042812091505092915050565b5f805f7f7fffffffffffffffffffffffffffffff5d576e7357a4501ddfe92f46681b20a0845f1c1115611bdb575f600385925092509250611c7c565b5f6001888888886040515f8152602001604052604051611bfe9493929190613291565b6020604051602081039080840390855afa158015611c1e573d5f803e3d5ffd5b5050506020604051035190505f73ffffffffffffffffffffffffffffffffffffffff168173ffffffffffffffffffffffffffffffffffffffff1603611c6f575f60015f801b93509350935050611c7c565b805f805f1b935093509350505b9450945094915050565b5f6003811115611c9957611c986132d4565b5b826003811115611cac57611cab6132d4565b5b0315611de45760016003811115611cc657611cc56132d4565b5b826003811115611cd957611cd86132d4565b5b03611d10576040517ff645eedf00000000000000000000000000000000000000000000000000000000815260040160405180910390fd5b60026003811115611d2457611d236132d4565b5b826003811115611d3757611d366132d4565b5b03611d7b57805f1c6040517ffce698f7000000000000000000000000000000000000000000000000000000008152600401611d7291906126f2565b60405180910390fd5b600380811115611d8e57611d8d6132d4565b5b826003811115611da157611da06132d4565b5b03611de357806040517fd78bce0c000000000000000000000000000000000000000000000000000000008152600401611dda919061269f565b60405180910390fd5b5b5050565b611df28383612073565b611e06611dfd610ca0565b5f8585856110f5565b505050565b5f7f01ffc9a7000000000000000000000000000000000000000000000000000000007bffffffffffffffffffffffffffffffffffffffffffffffffffffffff1916827bffffffffffffffffffffffffffffffffffffffffffffffffffffffff1916149050919050565b611e7f838383612166565b611f32575f73ffffffffffffffffffffffffffffffffffffffff168373ffffffffffffffffffffffffffffffffffffffff1603611ef357806040517f7e273289000000000000000000000000000000000000000000000000000000008152600401611eea91906126f2565b60405180910390fd5b81816040517f177e802f000000000000000000000000000000000000000000000000000000008152600401611f29929190613301565b60405180910390fd5b505050565b60605f611f4383612226565b90505f602067ffffffffffffffff811115611f6157611f606128ee565b5b6040519080825280601f01601f191660200182016040528015611f935781602001600182028036833780820191505090505b5090508181528360208201528092505050919050565b60605f6001611fb784612274565b0190505f8167ffffffffffffffff811115611fd557611fd46128ee565b5b6040519080825280601f01601f1916602001820160405280156120075781602001600182028036833780820191505090505b5090505f82602083010190505b600115612068578080600190039150507f3031323334353637383961626364656600000000000000000000000000000000600a86061a8153600a858161205d5761205c613328565b5b0494505f8503612014575b819350505050919050565b5f73ffffffffffffffffffffffffffffffffffffffff168273ffffffffffffffffffffffffffffffffffffffff16036120e3575f6040517f64a0ae920000000000000000000000000000000000000000000000000000000081526004016120da91906125b6565b60405180910390fd5b5f6120ef83835f610cb9565b90505f73ffffffffffffffffffffffffffffffffffffffff168173ffffffffffffffffffffffffffffffffffffffff1614612161575f6040517f73c6ac6e00000000000000000000000000000000000000000000000000000000815260040161215891906125b6565b60405180910390fd5b505050565b5f8073ffffffffffffffffffffffffffffffffffffffff168373ffffffffffffffffffffffffffffffffffffffff161415801561221d57508273ffffffffffffffffffffffffffffffffffffffff168473ffffffffffffffffffffffffffffffffffffffff1614806121de57506121dd8484610a2f565b5b8061221c57508273ffffffffffffffffffffffffffffffffffffffff1661220483610c67565b73ffffffffffffffffffffffffffffffffffffffff16145b5b90509392505050565b5f8060ff835f1c169050601f81111561226b576040517fb3512b0c00000000000000000000000000000000000000000000000000000000815260040160405180910390fd5b80915050919050565b5f805f90507a184f03e93ff9f4daa797ed6e38ed64bf6a1f01000000000000000083106122d0577a184f03e93ff9f4daa797ed6e38ed64bf6a1f01000000000000000083816122c6576122c5613328565b5b0492506040810190505b6d04ee2d6d415b85acef8100000000831061230d576d04ee2d6d415b85acef8100000000838161230357612302613328565b5b0492506020810190505b662386f26fc10000831061233c57662386f26fc10000838161233257612331613328565b5b0492506010810190505b6305f5e1008310612365576305f5e100838161235b5761235a613328565b5b0492506008810190505b612710831061238a5761271083816123805761237f613328565b5b0492506004810190505b606483106123ad57606483816123a3576123a2613328565b5b0492506002810190505b600a83106123bc576001810190505b80915050919050565b5f604051905090565b5f80fd5b5f80fd5b5f7fffffffff0000000000000000000000000000000000000000000000000000000082169050919050565b61240a816123d6565b8114612414575f80fd5b50565b5f8135905061242581612401565b92915050565b5f602082840312156124405761243f6123ce565b5b5f61244d84828501612417565b91505092915050565b5f8115159050919050565b61246a81612456565b82525050565b5f6020820190506124835f830184612461565b92915050565b5f81519050919050565b5f82825260208201905092915050565b8281835e5f83830152505050565b5f601f19601f8301169050919050565b5f6124cb82612489565b6124d58185612493565b93506124e58185602086016124a3565b6124ee816124b1565b840191505092915050565b5f6020820190508181035f83015261251181846124c1565b905092915050565b5f819050919050565b61252b81612519565b8114612535575f80fd5b50565b5f8135905061254681612522565b92915050565b5f60208284031215612561576125606123ce565b5b5f61256e84828501612538565b91505092915050565b5f73ffffffffffffffffffffffffffffffffffffffff82169050919050565b5f6125a082612577565b9050919050565b6125b081612596565b82525050565b5f6020820190506125c95f8301846125a7565b92915050565b6125d881612596565b81146125e2575f80fd5b50565b5f813590506125f3816125cf565b92915050565b5f806040838503121561260f5761260e6123ce565b5b5f61261c858286016125e5565b925050602061262d85828601612538565b9150509250929050565b5f805f6060848603121561264e5761264d6123ce565b5b5f61265b868287016125e5565b935050602061266c868287016125e5565b925050604061267d86828701612538565b9150509250925092565b5f819050919050565b61269981612687565b82525050565b5f6020820190506126b25f830184612690565b92915050565b5f602082840312156126cd576126cc6123ce565b5b5f6126da848285016125e5565b91505092915050565b6126ec81612519565b82525050565b5f6020820190506127055f8301846126e3565b92915050565b5f7fff0000000000000000000000000000000000000000000000000000000000000082169050919050565b61273f8161270b565b82525050565b5f81519050919050565b5f82825260208201905092915050565b5f819050602082019050919050565b61277781612519565b82525050565b5f612788838361276e565b60208301905092915050565b5f602082019050919050565b5f6127aa82612745565b6127b4818561274f565b93506127bf8361275f565b805f5b838110156127ef5781516127d6888261277d565b97506127e183612794565b9250506001810190506127c2565b5085935050505092915050565b5f60e08201905061280f5f83018a612736565b818103602083015261282181896124c1565b9050818103604083015261283581886124c1565b905061284460608301876126e3565b61285160808301866125a7565b61285e60a0830185612690565b81810360c083015261287081846127a0565b905098975050505050505050565b61288781612456565b8114612891575f80fd5b50565b5f813590506128a28161287e565b92915050565b5f80604083850312156128be576128bd6123ce565b5b5f6128cb858286016125e5565b92505060206128dc85828601612894565b9150509250929050565b5f80fd5b5f80fd5b7f4e487b71000000000000000000000000000000000000000000000000000000005f52604160045260245ffd5b612924826124b1565b810181811067ffffffffffffffff82111715612943576129426128ee565b5b80604052505050565b5f6129556123c5565b9050612961828261291b565b919050565b5f67ffffffffffffffff8211156129805761297f6128ee565b5b612989826124b1565b9050602081019050919050565b828183375f83830152505050565b5f6129b66129b184612966565b61294c565b9050828152602081018484840111156129d2576129d16128ea565b5b6129dd848285612996565b509392505050565b5f82601f8301126129f9576129f86128e6565b5b8135612a098482602086016129a4565b91505092915050565b5f805f8060808587031215612a2a57612a296123ce565b5b5f612a37878288016125e5565b9450506020612a48878288016125e5565b9350506040612a5987828801612538565b925050606085013567ffffffffffffffff811115612a7a57612a796123d2565b5b612a86878288016129e5565b91505092959194509250565b5f60ff82169050919050565b612aa781612a92565b8114612ab1575f80fd5b50565b5f81359050612ac281612a9e565b92915050565b612ad181612687565b8114612adb575f80fd5b50565b5f81359050612aec81612ac8565b92915050565b5f805f805f805f60e0888a031215612b0d57612b0c6123ce565b5b5f612b1a8a828b016125e5565b9750506020612b2b8a828b016125e5565b9650506040612b3c8a828b01612538565b9550506060612b4d8a828b01612538565b9450506080612b5e8a828b01612ab4565b93505060a0612b6f8a828b01612ade565b92505060c0612b808a828b01612ade565b91505092959891949750929550565b5f8060408385031215612ba557612ba46123ce565b5b5f612bb2858286016125e5565b9250506020612bc3858286016125e5565b9150509250929050565b5f67ffffffffffffffff821115612be757612be66128ee565b5b612bf0826124b1565b9050602081019050919050565b5f612c0f612c0a84612bcd565b61294c565b905082815260208101848484011115612c2b57612c2a6128ea565b5b612c36848285612996565b509392505050565b5f82601f830112612c5257612c516128e6565b5b8135612c62848260208601612bfd565b91505092915050565b5f8060408385031215612c8157612c806123ce565b5b5f612c8e858286016125e5565b925050602083013567ffffffffffffffff811115612caf57612cae6123d2565b5b612cbb85828601612c3e565b9150509250929050565b7f4e487b71000000000000000000000000000000000000000000000000000000005f52602260045260245ffd5b5f6002820490506001821680612d0957607f821691505b602082108103612d1c57612d1b612cc5565b5b50919050565b5f606082019050612d355f8301866125a7565b612d4260208301856126e3565b612d4f60408301846125a7565b949350505050565b5f60c082019050612d6a5f830189612690565b612d7760208301886125a7565b612d8460408301876125a7565b612d9160608301866126e3565b612d9e60808301856126e3565b612dab60a08301846126e3565b979650505050505050565b5f604082019050612dc95f8301856125a7565b612dd660208301846125a7565b9392505050565b7f4e487b71000000000000000000000000000000000000000000000000000000005f52601160045260245ffd5b5f612e1482612519565b91507fffffffffffffffffffffffffffffffffffffffffffffffffffffffffffffffff8203612e4657612e45612ddd565b5b600182019050919050565b5f606082019050612e645f8301866126e3565b612e7160208301856125a7565b8181036040830152612e8381846124c1565b9050949350505050565b5f81519050919050565b5f82825260208201905092915050565b5f612eb182612e8d565b612ebb8185612e97565b9350612ecb8185602086016124a3565b612ed4816124b1565b840191505092915050565b5f608082019050612ef25f8301876125a7565b612eff60208301866125a7565b612f0c60408301856126e3565b8181036060830152612f1e8184612ea7565b905095945050505050565b5f81519050612f3781612401565b92915050565b5f60208284031215612f5257612f516123ce565b5b5f612f5f84828501612f29565b91505092915050565b5f81905092915050565b5f612f7c82612489565b612f868185612f68565b9350612f968185602086016124a3565b80840191505092915050565b5f612fad8285612f72565b9150612fb98284612f72565b91508190509392505050565b5f819050815f5260205f209050919050565b5f6020601f8301049050919050565b5f82821b905092915050565b5f600883026130217fffffffffffffffffffffffffffffffffffffffffffffffffffffffffffffffff82612fe6565b61302b8683612fe6565b95508019841693508086168417925050509392505050565b5f819050919050565b5f61306661306161305c84612519565b613043565b612519565b9050919050565b5f819050919050565b61307f8361304c565b61309361308b8261306d565b848454612ff2565b825550505050565b5f90565b6130a761309b565b6130b2818484613076565b505050565b5b818110156130d5576130ca5f8261309f565b6001810190506130b8565b5050565b601f82111561311a576130eb81612fc5565b6130f484612fd7565b81016020851015613103578190505b61311761310f85612fd7565b8301826130b7565b50505b505050565b5f82821c905092915050565b5f61313a5f198460080261311f565b1980831691505092915050565b5f613152838361312b565b9150826002028217905092915050565b61316b82612489565b67ffffffffffffffff811115613184576131836128ee565b5b61318e8254612cf2565b6131998282856130d9565b5f60209050601f8311600181146131ca575f84156131b8578287015190505b6131c28582613147565b865550613229565b601f1984166131d886612fc5565b5f5b828110156131ff578489015182556001820191506020850194506020810190506131da565b8683101561321c5784890151613218601f89168261312b565b8355505b6001600288020188555050505b505050505050565b5f60a0820190506132445f830188612690565b6132516020830187612690565b61325e6040830186612690565b61326b60608301856126e3565b61327860808301846125a7565b9695505050505050565b61328b81612a92565b82525050565b5f6080820190506132a45f830187612690565b6132b16020830186613282565b6132be6040830185612690565b6132cb6060830184612690565b95945050505050565b7f4e487b71000000000000000000000000000000000000000000000000000000005f52602160045260245ffd5b5f6040820190506133145f8301856125a7565b61332160208301846126e3565b9392505050565b7f4e487b71000000000000000000000000000000000000000000000000000000005f52601260045260245ffdfea26469706673582212201a376dbbd3aeb592864791337c6adbf46b5b8028d9829460c90c3c5e62ed318064736f6c63430008190033",
    "linkReferences": {}
  },
  "methodIdentifiers": {
    "DOMAIN_SEPARATOR()": "3644e515",
    "approve(address,uint256)": "095ea7b3",
    "balanceOf(address)": "70a08231",
    "eip712Domain()": "84b0196e",
    "getApproved(uint256)": "081812fc",
    "isApprovedForAll(address,address)": "e985e9c5",
    "mintNFT(address,string)": "eacabe14",
    "name()": "06fdde03",
    "nonces(address)": "7ecebe00",
    "owner()": "8da5cb5b",
    "ownerOf(uint256)": "6352211e",
    "permit(address,address,uint256,uint256,uint8,bytes32,bytes32)": "d505accf",
    "renounceOwnership()": "715018a6",
    "safeTransferFrom(address,address,uint256)": "42842e0e",
    "safeTransferFrom(address,address,uint256,bytes)": "b88d4fde",
    "setApprovalForAll(address,bool)": "a22cb465",
    "supportsInterface(bytes4)": "01ffc9a7",
    "symbol()": "95d89b41",
    "tokenURI(uint256)": "c87b56dd",
    "transferFrom(address,address,uint256)": "23b872dd",
    "transferOwnership(address)": "f2fde38b"
  },
  "id": 47
}